{
  "_format": "hh-sol-artifact-1",
  "contractName": "VotingSystem",
  "sourceName": "contracts/VotingSystem.sol",
  "abi": [
    {
      "inputs": [],
      "stateMutability": "nonpayable",
      "type": "constructor"
    },
    {
      "anonymous": false,
      "inputs": [
        {
          "indexed": true,
          "internalType": "uint256",
          "name": "positionId",
          "type": "uint256"
        },
        {
          "indexed": false,
          "internalType": "uint256",
          "name": "candidateId",
          "type": "uint256"
        },
        {
          "indexed": false,
          "internalType": "string",
          "name": "name",
          "type": "string"
        }
      ],
      "name": "CandidateAdded",
      "type": "event"
    },
    {
      "anonymous": false,
      "inputs": [
        {
          "indexed": true,
          "internalType": "uint256",
          "name": "electionId",
          "type": "uint256"
        },
        {
          "indexed": false,
          "internalType": "string",
          "name": "name",
          "type": "string"
        }
      ],
      "name": "ElectionCreated",
      "type": "event"
    },
    {
      "anonymous": false,
      "inputs": [
        {
          "indexed": true,
          "internalType": "uint256",
          "name": "electionId",
          "type": "uint256"
        },
        {
          "indexed": false,
          "internalType": "bool",
          "name": "isActive",
          "type": "bool"
        }
      ],
      "name": "ElectionStatusChanged",
      "type": "event"
    },
    {
      "anonymous": false,
      "inputs": [
        {
          "indexed": true,
          "internalType": "uint256",
          "name": "electionId",
          "type": "uint256"
        },
        {
          "indexed": false,
          "internalType": "uint256",
          "name": "positionId",
          "type": "uint256"
        },
        {
          "indexed": false,
          "internalType": "string",
          "name": "name",
          "type": "string"
        }
      ],
      "name": "PositionAdded",
      "type": "event"
    },
    {
      "anonymous": false,
      "inputs": [
        {
          "indexed": true,
          "internalType": "address",
          "name": "voter",
          "type": "address"
        },
        {
          "indexed": true,
          "internalType": "uint256",
          "name": "electionId",
          "type": "uint256"
        },
        {
          "indexed": true,
          "internalType": "uint256",
          "name": "positionId",
          "type": "uint256"
        },
        {
          "indexed": false,
          "internalType": "uint256",
          "name": "candidateId",
          "type": "uint256"
        }
      ],
      "name": "VoteCast",
      "type": "event"
    },
    {
      "anonymous": false,
      "inputs": [
        {
          "indexed": true,
          "internalType": "address",
          "name": "voter",
          "type": "address"
        }
      ],
      "name": "VoterRegistered",
      "type": "event"
    },
    {
      "inputs": [
        {
          "internalType": "uint256",
          "name": "_positionId",
          "type": "uint256"
        },
        {
          "internalType": "string",
          "name": "_name",
          "type": "string"
        },
        {
          "internalType": "string",
          "name": "_info",
          "type": "string"
        },
        {
          "internalType": "string",
          "name": "_ipfsImageUrl",
          "type": "string"
        }
      ],
      "name": "addCandidate",
      "outputs": [
        {
          "internalType": "uint256",
          "name": "",
          "type": "uint256"
        }
      ],
      "stateMutability": "nonpayable",
      "type": "function"
    },
    {
      "inputs": [
        {
          "internalType": "uint256",
          "name": "_electionId",
          "type": "uint256"
        },
        {
          "internalType": "string",
          "name": "_name",
          "type": "string"
        }
      ],
      "name": "addPosition",
      "outputs": [
        {
          "internalType": "uint256",
          "name": "",
          "type": "uint256"
        }
      ],
      "stateMutability": "nonpayable",
      "type": "function"
    },
    {
      "inputs": [],
      "name": "candidateCounter",
      "outputs": [
        {
          "internalType": "uint256",
          "name": "",
          "type": "uint256"
        }
      ],
      "stateMutability": "view",
      "type": "function"
    },
    {
      "inputs": [
        {
          "internalType": "uint256",
          "name": "",
          "type": "uint256"
        }
      ],
      "name": "candidates",
      "outputs": [
        {
          "internalType": "uint256",
          "name": "id",
          "type": "uint256"
        },
        {
          "internalType": "string",
          "name": "name",
          "type": "string"
        },
        {
          "internalType": "string",
          "name": "info",
          "type": "string"
        },
        {
          "internalType": "uint256",
          "name": "voteCount",
          "type": "uint256"
        },
        {
          "internalType": "string",
          "name": "ipfsImageUrl",
          "type": "string"
        }
      ],
      "stateMutability": "view",
      "type": "function"
    },
    {
      "inputs": [
        {
          "internalType": "uint256",
          "name": "_electionId",
          "type": "uint256"
        },
        {
          "internalType": "uint256",
          "name": "_positionId",
          "type": "uint256"
        },
        {
          "internalType": "uint256",
          "name": "_candidateId",
          "type": "uint256"
        }
      ],
      "name": "castVote",
      "outputs": [],
      "stateMutability": "nonpayable",
      "type": "function"
    },
    {
      "inputs": [
        {
          "internalType": "string",
          "name": "_name",
          "type": "string"
        },
        {
          "internalType": "uint256",
          "name": "_startTime",
          "type": "uint256"
        },
        {
          "internalType": "uint256",
          "name": "_endTime",
          "type": "uint256"
        }
      ],
      "name": "createElection",
      "outputs": [
        {
          "internalType": "uint256",
          "name": "",
          "type": "uint256"
        }
      ],
      "stateMutability": "nonpayable",
      "type": "function"
    },
    {
      "inputs": [],
      "name": "electionCounter",
      "outputs": [
        {
          "internalType": "uint256",
          "name": "",
          "type": "uint256"
        }
      ],
      "stateMutability": "view",
      "type": "function"
    },
    {
      "inputs": [
        {
          "internalType": "uint256",
          "name": "",
          "type": "uint256"
        }
      ],
      "name": "elections",
      "outputs": [
        {
          "internalType": "uint256",
          "name": "id",
          "type": "uint256"
        },
        {
          "internalType": "string",
          "name": "name",
          "type": "string"
        },
        {
          "internalType": "bool",
          "name": "isActive",
          "type": "bool"
        },
        {
          "internalType": "uint256",
          "name": "startTime",
          "type": "uint256"
        },
        {
          "internalType": "uint256",
          "name": "endTime",
          "type": "uint256"
        }
      ],
      "stateMutability": "view",
      "type": "function"
    },
    {
      "inputs": [
        {
          "internalType": "uint256",
          "name": "_candidateId",
          "type": "uint256"
        }
      ],
      "name": "getCandidate",
      "outputs": [
        {
          "components": [
            {
              "internalType": "uint256",
              "name": "id",
              "type": "uint256"
            },
            {
              "internalType": "string",
              "name": "name",
              "type": "string"
            },
            {
              "internalType": "string",
              "name": "info",
              "type": "string"
            },
            {
              "internalType": "uint256",
              "name": "voteCount",
              "type": "uint256"
            },
            {
              "internalType": "string",
              "name": "ipfsImageUrl",
              "type": "string"
            }
          ],
          "internalType": "struct VotingSystem.Candidate",
          "name": "",
          "type": "tuple"
        }
      ],
      "stateMutability": "view",
      "type": "function"
    },
    {
      "inputs": [
        {
          "internalType": "uint256",
          "name": "_positionId",
          "type": "uint256"
        }
      ],
      "name": "getCandidateIds",
      "outputs": [
        {
          "internalType": "uint256[]",
          "name": "",
          "type": "uint256[]"
        }
      ],
      "stateMutability": "view",
      "type": "function"
    },
    {
      "inputs": [
        {
          "internalType": "uint256",
          "name": "_electionId",
          "type": "uint256"
        }
      ],
      "name": "getElectionDetails",
      "outputs": [
        {
          "components": [
            {
              "internalType": "uint256",
              "name": "id",
              "type": "uint256"
            },
            {
              "internalType": "string",
              "name": "name",
              "type": "string"
            },
            {
              "internalType": "bool",
              "name": "isActive",
              "type": "bool"
            },
            {
              "internalType": "uint256",
              "name": "startTime",
              "type": "uint256"
            },
            {
              "internalType": "uint256",
              "name": "endTime",
              "type": "uint256"
            },
            {
              "internalType": "uint256[]",
              "name": "positionIds",
              "type": "uint256[]"
            }
          ],
          "internalType": "struct VotingSystem.Election",
          "name": "",
          "type": "tuple"
        }
      ],
      "stateMutability": "view",
      "type": "function"
    },
    {
      "inputs": [
        {
          "internalType": "uint256",
          "name": "_positionId",
          "type": "uint256"
        }
      ],
      "name": "getPosition",
      "outputs": [
        {
          "components": [
            {
              "internalType": "uint256",
              "name": "id",
              "type": "uint256"
            },
            {
              "internalType": "string",
              "name": "name",
              "type": "string"
            },
            {
              "internalType": "uint256[]",
              "name": "candidateIds",
              "type": "uint256[]"
            },
            {
              "internalType": "bool",
              "name": "exists",
              "type": "bool"
            }
          ],
          "internalType": "struct VotingSystem.Position",
          "name": "",
          "type": "tuple"
        }
      ],
      "stateMutability": "view",
      "type": "function"
    },
    {
      "inputs": [
        {
          "internalType": "uint256",
          "name": "_electionId",
          "type": "uint256"
        }
      ],
      "name": "getPositionIds",
      "outputs": [
        {
          "internalType": "uint256[]",
          "name": "",
          "type": "uint256[]"
        }
      ],
      "stateMutability": "view",
      "type": "function"
    },
    {
      "inputs": [
        {
          "internalType": "address",
          "name": "_voter",
          "type": "address"
        },
        {
          "internalType": "uint256",
          "name": "_positionId",
          "type": "uint256"
        }
      ],
      "name": "hasVoted",
      "outputs": [
        {
          "internalType": "bool",
          "name": "",
          "type": "bool"
        }
      ],
      "stateMutability": "view",
      "type": "function"
    },
    {
      "inputs": [],
      "name": "owner",
      "outputs": [
        {
          "internalType": "address",
          "name": "",
          "type": "address"
        }
      ],
      "stateMutability": "view",
      "type": "function"
    },
    {
      "inputs": [],
      "name": "positionCounter",
      "outputs": [
        {
          "internalType": "uint256",
          "name": "",
          "type": "uint256"
        }
      ],
      "stateMutability": "view",
      "type": "function"
    },
    {
      "inputs": [
        {
          "internalType": "uint256",
          "name": "",
          "type": "uint256"
        }
      ],
      "name": "positions",
      "outputs": [
        {
          "internalType": "uint256",
          "name": "id",
          "type": "uint256"
        },
        {
          "internalType": "string",
          "name": "name",
          "type": "string"
        },
        {
          "internalType": "bool",
          "name": "exists",
          "type": "bool"
        }
      ],
      "stateMutability": "view",
      "type": "function"
    },
    {
      "inputs": [
        {
          "internalType": "address[]",
          "name": "_voters",
          "type": "address[]"
        }
      ],
      "name": "registerVoters",
      "outputs": [],
      "stateMutability": "nonpayable",
      "type": "function"
    },
    {
      "inputs": [
        {
          "internalType": "uint256",
          "name": "_electionId",
          "type": "uint256"
        },
        {
          "internalType": "bool",
          "name": "_isActive",
          "type": "bool"
        }
      ],
      "name": "toggleElectionStatus",
      "outputs": [],
      "stateMutability": "nonpayable",
      "type": "function"
    },
    {
      "inputs": [
        {
          "internalType": "address",
          "name": "",
          "type": "address"
        }
      ],
      "name": "voters",
      "outputs": [
        {
          "internalType": "bool",
          "name": "isRegistered",
          "type": "bool"
        },
        {
          "internalType": "bool",
          "name": "hasVoted",
          "type": "bool"
        }
      ],
      "stateMutability": "view",
      "type": "function"
    }
  ],
  "bytecode": "0x608060405234801561001057600080fd5b50336000806101000a81548173ffffffffffffffffffffffffffffffffffffffff021916908373ffffffffffffffffffffffffffffffffffffffff160217905550612d08806100606000396000f3fe608060405234801561001057600080fd5b506004361061012c5760003560e01c80638da5cb5b116100ad578063d55ec9c111610071578063d55ec9c1146103b0578063eb02c301146103cc578063efee0653146103fc578063f49a7a1714610418578063f6049924146104485761012c565b80638da5cb5b146102cf57806399fbab88146102ed578063a3ec138d1461031f578063b0a5df6e14610350578063ce4a2743146103805761012c565b806342545825116100f457806342545825146102135780635be5e3ec146102435780635e6fef011461025f57806361e374171461029357806363d5ab8d146102b15761012c565b80630ea16c7a146101315780631973c619146101615780633477ee2e1461019157806335b8e820146101c55780633bc990db146101f5575b600080fd5b61014b60048036038101906101469190611a6a565b610478565b6040516101589190611b55565b60405180910390f35b61017b60048036038101906101769190611a6a565b6104e6565b6040516101889190611b55565b60405180910390f35b6101ab60048036038101906101a69190611a6a565b610554565b6040516101bc959493929190611c16565b60405180910390f35b6101df60048036038101906101da9190611a6a565b610722565b6040516101ec9190611d4c565b60405180910390f35b6101fd610919565b60405161020a9190611d6e565b60405180910390f35b61022d60048036038101906102289190611de7565b61091f565b60405161023a9190611e42565b60405180910390f35b61025d60048036038101906102589190611e5d565b61098a565b005b61027960048036038101906102749190611a6a565b610d1d565b60405161028a959493929190611eb0565b60405180910390f35b61029b610de8565b6040516102a89190611d6e565b60405180910390f35b6102b9610dee565b6040516102c69190611d6e565b60405180910390f35b6102d7610df4565b6040516102e49190611f19565b60405180910390f35b61030760048036038101906103029190611a6a565b610e18565b60405161031693929190611f34565b60405180910390f35b61033960048036038101906103349190611f72565b610ed7565b604051610347929190611f9f565b60405180910390f35b61036a600480360381019061036591906120fd565b610f15565b6040516103779190611d6e565b60405180910390f35b61039a60048036038101906103959190612159565b6110f1565b6040516103a79190611d6e565b60405180910390f35b6103ca60048036038101906103c591906122dc565b6112e0565b005b6103e660048036038101906103e19190611a6a565b61145d565b6040516103f3919061240d565b60405180910390f35b6104166004803603810190610411919061245b565b611599565b005b610432600480360381019061042d919061249b565b6116ea565b60405161043f9190611d6e565b60405180910390f35b610462600480360381019061045d9190611a6a565b61183f565b60405161046f919061259a565b60405180910390f35b6060600560008381526020019081526020016000206002018054806020026020016040519081016040528092919081815260200182805480156104da57602002820191906000526020600020905b8154815260200190600101908083116104c6575b50505050509050919050565b60606004600083815260200190815260200160002060050180548060200260200160405190810160405280929190818152602001828054801561054857602002820191906000526020600020905b815481526020019060010190808311610534575b50505050509050919050565b600660205280600052604060002060009150905080600001549080600101805461057d906125eb565b80601f01602080910402602001604051908101604052809291908181526020018280546105a9906125eb565b80156105f65780601f106105cb576101008083540402835291602001916105f6565b820191906000526020600020905b8154815290600101906020018083116105d957829003601f168201915b50505050509080600201805461060b906125eb565b80601f0160208091040260200160405190810160405280929190818152602001828054610637906125eb565b80156106845780601f1061065957610100808354040283529160200191610684565b820191906000526020600020905b81548152906001019060200180831161066757829003601f168201915b50505050509080600301549080600401805461069f906125eb565b80601f01602080910402602001604051908101604052809291908181526020018280546106cb906125eb565b80156107185780601f106106ed57610100808354040283529160200191610718565b820191906000526020600020905b8154815290600101906020018083116106fb57829003601f168201915b5050505050905085565b61072a61198f565b600660008381526020019081526020016000206040518060a001604052908160008201548152602001600182018054610762906125eb565b80601f016020809104026020016040519081016040528092919081815260200182805461078e906125eb565b80156107db5780601f106107b0576101008083540402835291602001916107db565b820191906000526020600020905b8154815290600101906020018083116107be57829003601f168201915b505050505081526020016002820180546107f4906125eb565b80601f0160208091040260200160405190810160405280929190818152602001828054610820906125eb565b801561086d5780601f106108425761010080835404028352916020019161086d565b820191906000526020600020905b81548152906001019060200180831161085057829003601f168201915b5050505050815260200160038201548152602001600482018054610890906125eb565b80601f01602080910402602001604051908101604052809291908181526020018280546108bc906125eb565b80156109095780601f106108de57610100808354040283529160200191610909565b820191906000526020600020905b8154815290600101906020018083116108ec57829003601f168201915b5050505050815250509050919050565b60015481565b6000600760008473ffffffffffffffffffffffffffffffffffffffff1673ffffffffffffffffffffffffffffffffffffffff168152602001908152602001600020600101600083815260200190815260200160002060009054906101000a900460ff16905092915050565b600760003373ffffffffffffffffffffffffffffffffffffffff1673ffffffffffffffffffffffffffffffffffffffff16815260200190815260200160002060000160009054906101000a900460ff16610a19576040517f08c379a0000000000000000000000000000000000000000000000000000000008152600401610a1090612668565b60405180910390fd5b60006004600085815260200190815260200160002090508060020160009054906101000a900460ff16610a81576040517f08c379a0000000000000000000000000000000000000000000000000000000008152600401610a78906126d4565b60405180910390fd5b6005600084815260200190815260200160002060030160009054906101000a900460ff16610ae4576040517f08c379a0000000000000000000000000000000000000000000000000000000008152600401610adb90612740565b60405180910390fd5b600760003373ffffffffffffffffffffffffffffffffffffffff1673ffffffffffffffffffffffffffffffffffffffff168152602001908152602001600020600101600084815260200190815260200160002060009054906101000a900460ff1615610b85576040517f08c379a0000000000000000000000000000000000000000000000000000000008152600401610b7c906127ac565b60405180910390fd5b60008060056000868152602001908152602001600020905060005b8160020180549050811015610bec5784826002018281548110610bc657610bc56127cc565b5b906000526020600020015403610bdf5760019250610bec565b8080600101915050610ba0565b5081610c2d576040517f08c379a0000000000000000000000000000000000000000000000000000000008152600401610c249061286d565b60405180910390fd5b6001600760003373ffffffffffffffffffffffffffffffffffffffff1673ffffffffffffffffffffffffffffffffffffffff168152602001908152602001600020600101600087815260200190815260200160002060006101000a81548160ff021916908315150217905550600660008581526020019081526020016000206003016000815480929190610cc0906128bc565b919050555084863373ffffffffffffffffffffffffffffffffffffffff167fa23fc440c6fc2e19ce408adc0b47622097fa7ea64409d71d33ba3fcdb5b4cd9587604051610d0d9190611d6e565b60405180910390a4505050505050565b6004602052806000526040600020600091509050806000015490806001018054610d46906125eb565b80601f0160208091040260200160405190810160405280929190818152602001828054610d72906125eb565b8015610dbf5780601f10610d9457610100808354040283529160200191610dbf565b820191906000526020600020905b815481529060010190602001808311610da257829003601f168201915b5050505050908060020160009054906101000a900460ff16908060030154908060040154905085565b60035481565b60025481565b60008054906101000a900473ffffffffffffffffffffffffffffffffffffffff1681565b6005602052806000526040600020600091509050806000015490806001018054610e41906125eb565b80601f0160208091040260200160405190810160405280929190818152602001828054610e6d906125eb565b8015610eba5780601f10610e8f57610100808354040283529160200191610eba565b820191906000526020600020905b815481529060010190602001808311610e9d57829003601f168201915b5050505050908060030160009054906101000a900460ff16905083565b60076020528060005260406000206000915090508060000160009054906101000a900460ff16908060000160019054906101000a900460ff16905082565b60008060009054906101000a900473ffffffffffffffffffffffffffffffffffffffff1673ffffffffffffffffffffffffffffffffffffffff163373ffffffffffffffffffffffffffffffffffffffff1614610fa6576040517f08c379a0000000000000000000000000000000000000000000000000000000008152600401610f9d90612976565b60405180910390fd5b6000600460008581526020019081526020016000206000015403610fff576040517f08c379a0000000000000000000000000000000000000000000000000000000008152600401610ff6906129e2565b60405180910390fd5b60026000815480929190611012906128bc565b91905055506000600560006002548152602001908152602001600020905060025481600001819055508281600101908161104c9190612bae565b5060018160030160006101000a81548160ff021916908315150217905550600460008581526020019081526020016000206005016002549080600181540180825580915050600190039060005260206000200160009091909190915055837f2dd2b564e126a0f510a2aa47cd4667bf4b5504fbde6111a2d62b1484b24fa5c2600254856040516110dd929190612c80565b60405180910390a260025491505092915050565b60008060009054906101000a900473ffffffffffffffffffffffffffffffffffffffff1673ffffffffffffffffffffffffffffffffffffffff163373ffffffffffffffffffffffffffffffffffffffff1614611182576040517f08c379a000000000000000000000000000000000000000000000000000000000815260040161117990612976565b60405180910390fd5b6005600086815260200190815260200160002060030160009054906101000a900460ff166111e5576040517f08c379a00000000000000000000000000000000000000000000000000000000081526004016111dc90612740565b60405180910390fd5b600160008154809291906111f8906128bc565b9190505550600060066000600154815260200190815260200160002090506001548160000181905550848160010190816112329190612bae565b50838160020190816112449190612bae565b50828160040190816112569190612bae565b50600560008781526020019081526020016000206002016001549080600181540180825580915050600190039060005260206000200160009091909190915055857fed8911b3df733b7d5f75724158e54478ea12e30f49c9d31b5261879f5b76586f600154876040516112ca929190612c80565b60405180910390a2600154915050949350505050565b60008054906101000a900473ffffffffffffffffffffffffffffffffffffffff1673ffffffffffffffffffffffffffffffffffffffff163373ffffffffffffffffffffffffffffffffffffffff161461136e576040517f08c379a000000000000000000000000000000000000000000000000000000000815260040161136590612976565b60405180910390fd5b60005b815181101561145957600160076000848481518110611393576113926127cc565b5b602002602001015173ffffffffffffffffffffffffffffffffffffffff1673ffffffffffffffffffffffffffffffffffffffff16815260200190815260200160002060000160006101000a81548160ff021916908315150217905550818181518110611402576114016127cc565b5b602002602001015173ffffffffffffffffffffffffffffffffffffffff167fb6be2187d059cc2a55fe29e0e503b566e1e0f8c8780096e185429350acffd3dd60405160405180910390a28080600101915050611371565b5050565b6114656119be565b600560008381526020019081526020016000206040518060800160405290816000820154815260200160018201805461149d906125eb565b80601f01602080910402602001604051908101604052809291908181526020018280546114c9906125eb565b80156115165780601f106114eb57610100808354040283529160200191611516565b820191906000526020600020905b8154815290600101906020018083116114f957829003601f168201915b505050505081526020016002820180548060200260200160405190810160405280929190818152602001828054801561156e57602002820191906000526020600020905b81548152602001906001019080831161155a575b505050505081526020016003820160009054906101000a900460ff1615151515815250509050919050565b60008054906101000a900473ffffffffffffffffffffffffffffffffffffffff1673ffffffffffffffffffffffffffffffffffffffff163373ffffffffffffffffffffffffffffffffffffffff1614611627576040517f08c379a000000000000000000000000000000000000000000000000000000000815260040161161e90612976565b60405180910390fd5b6000600460008481526020019081526020016000206000015403611680576040517f08c379a0000000000000000000000000000000000000000000000000000000008152600401611677906129e2565b60405180910390fd5b806004600084815260200190815260200160002060020160006101000a81548160ff021916908315150217905550817f550243ff1a84cc99f7f82bfd2e29380f33523ca72cde0783141c25ed8f4dede3826040516116de9190611e42565b60405180910390a25050565b60008060009054906101000a900473ffffffffffffffffffffffffffffffffffffffff1673ffffffffffffffffffffffffffffffffffffffff163373ffffffffffffffffffffffffffffffffffffffff161461177b576040517f08c379a000000000000000000000000000000000000000000000000000000000815260040161177290612976565b60405180910390fd5b6003600081548092919061178e906128bc565b9190505550600060046000600354815260200190815260200160002090506003548160000181905550848160010190816117c89190612bae565b5083816003018190555082816004018190555060018160020160006101000a81548160ff0219169083151502179055506003547f52be7c4e77b4de76b7607d621492061fe13b58597e72dfb5e51ab8f6187ed1418660405161182a9190612cb0565b60405180910390a26003549150509392505050565b6118476119e8565b600460008381526020019081526020016000206040518060c00160405290816000820154815260200160018201805461187f906125eb565b80601f01602080910402602001604051908101604052809291908181526020018280546118ab906125eb565b80156118f85780601f106118cd576101008083540402835291602001916118f8565b820191906000526020600020905b8154815290600101906020018083116118db57829003601f168201915b505050505081526020016002820160009054906101000a900460ff1615151515815260200160038201548152602001600482015481526020016005820180548060200260200160405190810160405280929190818152602001828054801561197f57602002820191906000526020600020905b81548152602001906001019080831161196b575b5050505050815250509050919050565b6040518060a0016040528060008152602001606081526020016060815260200160008152602001606081525090565b60405180608001604052806000815260200160608152602001606081526020016000151581525090565b6040518060c0016040528060008152602001606081526020016000151581526020016000815260200160008152602001606081525090565b6000604051905090565b600080fd5b600080fd5b6000819050919050565b611a4781611a34565b8114611a5257600080fd5b50565b600081359050611a6481611a3e565b92915050565b600060208284031215611a8057611a7f611a2a565b5b6000611a8e84828501611a55565b91505092915050565b600081519050919050565b600082825260208201905092915050565b6000819050602082019050919050565b611acc81611a34565b82525050565b6000611ade8383611ac3565b60208301905092915050565b6000602082019050919050565b6000611b0282611a97565b611b0c8185611aa2565b9350611b1783611ab3565b8060005b83811015611b48578151611b2f8882611ad2565b9750611b3a83611aea565b925050600181019050611b1b565b5085935050505092915050565b60006020820190508181036000830152611b6f8184611af7565b905092915050565b611b8081611a34565b82525050565b600081519050919050565b600082825260208201905092915050565b60005b83811015611bc0578082015181840152602081019050611ba5565b60008484015250505050565b6000601f19601f8301169050919050565b6000611be882611b86565b611bf28185611b91565b9350611c02818560208601611ba2565b611c0b81611bcc565b840191505092915050565b600060a082019050611c2b6000830188611b77565b8181036020830152611c3d8187611bdd565b90508181036040830152611c518186611bdd565b9050611c606060830185611b77565b8181036080830152611c728184611bdd565b90509695505050505050565b600082825260208201905092915050565b6000611c9a82611b86565b611ca48185611c7e565b9350611cb4818560208601611ba2565b611cbd81611bcc565b840191505092915050565b600060a083016000830151611ce06000860182611ac3565b5060208301518482036020860152611cf88282611c8f565b91505060408301518482036040860152611d128282611c8f565b9150506060830151611d276060860182611ac3565b5060808301518482036080860152611d3f8282611c8f565b9150508091505092915050565b60006020820190508181036000830152611d668184611cc8565b905092915050565b6000602082019050611d836000830184611b77565b92915050565b600073ffffffffffffffffffffffffffffffffffffffff82169050919050565b6000611db482611d89565b9050919050565b611dc481611da9565b8114611dcf57600080fd5b50565b600081359050611de181611dbb565b92915050565b60008060408385031215611dfe57611dfd611a2a565b5b6000611e0c85828601611dd2565b9250506020611e1d85828601611a55565b9150509250929050565b60008115159050919050565b611e3c81611e27565b82525050565b6000602082019050611e576000830184611e33565b92915050565b600080600060608486031215611e7657611e75611a2a565b5b6000611e8486828701611a55565b9350506020611e9586828701611a55565b9250506040611ea686828701611a55565b9150509250925092565b600060a082019050611ec56000830188611b77565b8181036020830152611ed78187611bdd565b9050611ee66040830186611e33565b611ef36060830185611b77565b611f006080830184611b77565b9695505050505050565b611f1381611da9565b82525050565b6000602082019050611f2e6000830184611f0a565b92915050565b6000606082019050611f496000830186611b77565b8181036020830152611f5b8185611bdd565b9050611f6a6040830184611e33565b949350505050565b600060208284031215611f8857611f87611a2a565b5b6000611f9684828501611dd2565b91505092915050565b6000604082019050611fb46000830185611e33565b611fc16020830184611e33565b9392505050565b600080fd5b600080fd5b7f4e487b7100000000000000000000000000000000000000000000000000000000600052604160045260246000fd5b61200a82611bcc565b810181811067ffffffffffffffff8211171561202957612028611fd2565b5b80604052505050565b600061203c611a20565b90506120488282612001565b919050565b600067ffffffffffffffff82111561206857612067611fd2565b5b61207182611bcc565b9050602081019050919050565b82818337600083830152505050565b60006120a061209b8461204d565b612032565b9050828152602081018484840111156120bc576120bb611fcd565b5b6120c784828561207e565b509392505050565b600082601f8301126120e4576120e3611fc8565b5b81356120f484826020860161208d565b91505092915050565b6000806040838503121561211457612113611a2a565b5b600061212285828601611a55565b925050602083013567ffffffffffffffff81111561214357612142611a2f565b5b61214f858286016120cf565b9150509250929050565b6000806000806080858703121561217357612172611a2a565b5b600061218187828801611a55565b945050602085013567ffffffffffffffff8111156121a2576121a1611a2f565b5b6121ae878288016120cf565b935050604085013567ffffffffffffffff8111156121cf576121ce611a2f565b5b6121db878288016120cf565b925050606085013567ffffffffffffffff8111156121fc576121fb611a2f565b5b612208878288016120cf565b91505092959194509250565b600067ffffffffffffffff82111561222f5761222e611fd2565b5b602082029050602081019050919050565b600080fd5b600061225861225384612214565b612032565b9050808382526020820190506020840283018581111561227b5761227a612240565b5b835b818110156122a457806122908882611dd2565b84526020840193505060208101905061227d565b5050509392505050565b600082601f8301126122c3576122c2611fc8565b5b81356122d3848260208601612245565b91505092915050565b6000602082840312156122f2576122f1611a2a565b5b600082013567ffffffffffffffff8111156123105761230f611a2f565b5b61231c848285016122ae565b91505092915050565b600082825260208201905092915050565b600061234182611a97565b61234b8185612325565b935061235683611ab3565b8060005b8381101561238757815161236e8882611ad2565b975061237983611aea565b92505060018101905061235a565b5085935050505092915050565b61239d81611e27565b82525050565b60006080830160008301516123bb6000860182611ac3565b50602083015184820360208601526123d38282611c8f565b915050604083015184820360408601526123ed8282612336565b91505060608301516124026060860182612394565b508091505092915050565b6000602082019050818103600083015261242781846123a3565b905092915050565b61243881611e27565b811461244357600080fd5b50565b6000813590506124558161242f565b92915050565b6000806040838503121561247257612471611a2a565b5b600061248085828601611a55565b925050602061249185828601612446565b9150509250929050565b6000806000606084860312156124b4576124b3611a2a565b5b600084013567ffffffffffffffff8111156124d2576124d1611a2f565b5b6124de868287016120cf565b93505060206124ef86828701611a55565b925050604061250086828701611a55565b9150509250925092565b600060c0830160008301516125226000860182611ac3565b506020830151848203602086015261253a8282611c8f565b915050604083015161254f6040860182612394565b5060608301516125626060860182611ac3565b5060808301516125756080860182611ac3565b5060a083015184820360a086015261258d8282612336565b9150508091505092915050565b600060208201905081810360008301526125b4818461250a565b905092915050565b7f4e487b7100000000000000000000000000000000000000000000000000000000600052602260045260246000fd5b6000600282049050600182168061260357607f821691505b602082108103612616576126156125bc565b5b50919050565b7f4e6f742061207265676973746572656420766f74657200000000000000000000600082015250565b6000612652601683611b91565b915061265d8261261c565b602082019050919050565b6000602082019050818103600083015261268181612645565b9050919050565b7f456c656374696f6e206973206e6f742061637469766500000000000000000000600082015250565b60006126be601683611b91565b91506126c982612688565b602082019050919050565b600060208201905081810360008301526126ed816126b1565b9050919050565b7f506f736974696f6e20646f6573206e6f74206578697374000000000000000000600082015250565b600061272a601783611b91565b9150612735826126f4565b602082019050919050565b600060208201905081810360008301526127598161271d565b9050919050565b7f416c726561647920766f74656420666f72207468697320706f736974696f6e00600082015250565b6000612796601f83611b91565b91506127a182612760565b602082019050919050565b600060208201905081810360008301526127c581612789565b9050919050565b7f4e487b7100000000000000000000000000000000000000000000000000000000600052603260045260246000fd5b7f496e76616c69642063616e64696461746520666f72207468697320706f73697460008201527f696f6e0000000000000000000000000000000000000000000000000000000000602082015250565b6000612857602383611b91565b9150612862826127fb565b604082019050919050565b600060208201905081810360008301526128868161284a565b9050919050565b7f4e487b7100000000000000000000000000000000000000000000000000000000600052601160045260246000fd5b60006128c782611a34565b91507fffffffffffffffffffffffffffffffffffffffffffffffffffffffffffffffff82036128f9576128f861288d565b5b600182019050919050565b7f4f6e6c792061646d696e2063616e20706572666f726d2074686973206163746960008201527f6f6e000000000000000000000000000000000000000000000000000000000000602082015250565b6000612960602283611b91565b915061296b82612904565b604082019050919050565b6000602082019050818103600083015261298f81612953565b9050919050565b7f456c656374696f6e20646f6573206e6f74206578697374000000000000000000600082015250565b60006129cc601783611b91565b91506129d782612996565b602082019050919050565b600060208201905081810360008301526129fb816129bf565b9050919050565b60008190508160005260206000209050919050565b60006020601f8301049050919050565b600082821b905092915050565b600060088302612a647fffffffffffffffffffffffffffffffffffffffffffffffffffffffffffffffff82612a27565b612a6e8683612a27565b95508019841693508086168417925050509392505050565b6000819050919050565b6000612aab612aa6612aa184611a34565b612a86565b611a34565b9050919050565b6000819050919050565b612ac583612a90565b612ad9612ad182612ab2565b848454612a34565b825550505050565b600090565b612aee612ae1565b612af9818484612abc565b505050565b5b81811015612b1d57612b12600082612ae6565b600181019050612aff565b5050565b601f821115612b6257612b3381612a02565b612b3c84612a17565b81016020851015612b4b578190505b612b5f612b5785612a17565b830182612afe565b50505b505050565b600082821c905092915050565b6000612b8560001984600802612b67565b1980831691505092915050565b6000612b9e8383612b74565b9150826002028217905092915050565b612bb782611b86565b67ffffffffffffffff811115612bd057612bcf611fd2565b5b612bda82546125eb565b612be5828285612b21565b600060209050601f831160018114612c185760008415612c06578287015190505b612c108582612b92565b865550612c78565b601f198416612c2686612a02565b60005b82811015612c4e57848901518255600182019150602085019450602081019050612c29565b86831015612c6b5784890151612c67601f891682612b74565b8355505b6001600288020188555050505b505050505050565b6000604082019050612c956000830185611b77565b8181036020830152612ca78184611bdd565b90509392505050565b60006020820190508181036000830152612cca8184611bdd565b90509291505056fea26469706673582212203da143d7cdf18a5df8d439f5589485379cd92388e324d46605028a4f335f0e3e64736f6c63430008180033",
  "linkReferences": {},
  "deployedLinkReferences": {}
}